{
  "contractName": "SeedBatch",
  "abi": [
    {
      "inputs": [],
      "stateMutability": "nonpayable",
      "type": "constructor"
    },
    {
      "anonymous": false,
      "inputs": [
        {
          "indexed": true,
          "internalType": "address",
          "name": "account",
          "type": "address"
        },
        {
          "indexed": true,
          "internalType": "address",
          "name": "operator",
          "type": "address"
        },
        {
          "indexed": false,
          "internalType": "bool",
          "name": "approved",
          "type": "bool"
        }
      ],
      "name": "ApprovalForAll",
      "type": "event"
    },
    {
      "anonymous": false,
      "inputs": [
        {
          "indexed": true,
          "internalType": "address",
          "name": "previousOwner",
          "type": "address"
        },
        {
          "indexed": true,
          "internalType": "address",
          "name": "newOwner",
          "type": "address"
        }
      ],
      "name": "OwnershipTransferred",
      "type": "event"
    },
    {
      "anonymous": false,
      "inputs": [
        {
          "indexed": true,
          "internalType": "address",
          "name": "operator",
          "type": "address"
        },
        {
          "indexed": true,
          "internalType": "address",
          "name": "from",
          "type": "address"
        },
        {
          "indexed": true,
          "internalType": "address",
          "name": "to",
          "type": "address"
        },
        {
          "indexed": false,
          "internalType": "uint256[]",
          "name": "ids",
          "type": "uint256[]"
        },
        {
          "indexed": false,
          "internalType": "uint256[]",
          "name": "values",
          "type": "uint256[]"
        }
      ],
      "name": "TransferBatch",
      "type": "event"
    },
    {
      "anonymous": false,
      "inputs": [
        {
          "indexed": true,
          "internalType": "address",
          "name": "operator",
          "type": "address"
        },
        {
          "indexed": true,
          "internalType": "address",
          "name": "from",
          "type": "address"
        },
        {
          "indexed": true,
          "internalType": "address",
          "name": "to",
          "type": "address"
        },
        {
          "indexed": false,
          "internalType": "uint256",
          "name": "id",
          "type": "uint256"
        },
        {
          "indexed": false,
          "internalType": "uint256",
          "name": "value",
          "type": "uint256"
        }
      ],
      "name": "TransferSingle",
      "type": "event"
    },
    {
      "anonymous": false,
      "inputs": [
        {
          "indexed": false,
          "internalType": "string",
          "name": "value",
          "type": "string"
        },
        {
          "indexed": true,
          "internalType": "uint256",
          "name": "id",
          "type": "uint256"
        }
      ],
      "name": "URI",
      "type": "event"
    },
    {
      "inputs": [
        {
          "internalType": "address",
          "name": "account",
          "type": "address"
        },
        {
          "internalType": "uint256",
          "name": "id",
          "type": "uint256"
        }
      ],
      "name": "balanceOf",
      "outputs": [
        {
          "internalType": "uint256",
          "name": "",
          "type": "uint256"
        }
      ],
      "stateMutability": "view",
      "type": "function"
    },
    {
      "inputs": [
        {
          "internalType": "address[]",
          "name": "accounts",
          "type": "address[]"
        },
        {
          "internalType": "uint256[]",
          "name": "ids",
          "type": "uint256[]"
        }
      ],
      "name": "balanceOfBatch",
      "outputs": [
        {
          "internalType": "uint256[]",
          "name": "",
          "type": "uint256[]"
        }
      ],
      "stateMutability": "view",
      "type": "function"
    },
    {
      "inputs": [
        {
          "internalType": "uint256",
          "name": "id",
          "type": "uint256"
        }
      ],
      "name": "exists",
      "outputs": [
        {
          "internalType": "bool",
          "name": "",
          "type": "bool"
        }
      ],
      "stateMutability": "view",
      "type": "function"
    },
    {
      "inputs": [
        {
          "internalType": "address",
          "name": "account",
          "type": "address"
        },
        {
          "internalType": "address",
          "name": "operator",
          "type": "address"
        }
      ],
      "name": "isApprovedForAll",
      "outputs": [
        {
          "internalType": "bool",
          "name": "",
          "type": "bool"
        }
      ],
      "stateMutability": "view",
      "type": "function"
    },
    {
      "inputs": [],
      "name": "owner",
      "outputs": [
        {
          "internalType": "address",
          "name": "",
          "type": "address"
        }
      ],
      "stateMutability": "view",
      "type": "function"
    },
    {
      "inputs": [],
      "name": "renounceOwnership",
      "outputs": [],
      "stateMutability": "nonpayable",
      "type": "function"
    },
    {
      "inputs": [
        {
          "internalType": "address",
          "name": "from",
          "type": "address"
        },
        {
          "internalType": "address",
          "name": "to",
          "type": "address"
        },
        {
          "internalType": "uint256[]",
          "name": "ids",
          "type": "uint256[]"
        },
        {
          "internalType": "uint256[]",
          "name": "amounts",
          "type": "uint256[]"
        },
        {
          "internalType": "bytes",
          "name": "data",
          "type": "bytes"
        }
      ],
      "name": "safeBatchTransferFrom",
      "outputs": [],
      "stateMutability": "nonpayable",
      "type": "function"
    },
    {
      "inputs": [
        {
          "internalType": "address",
          "name": "from",
          "type": "address"
        },
        {
          "internalType": "address",
          "name": "to",
          "type": "address"
        },
        {
          "internalType": "uint256",
          "name": "id",
          "type": "uint256"
        },
        {
          "internalType": "uint256",
          "name": "amount",
          "type": "uint256"
        },
        {
          "internalType": "bytes",
          "name": "data",
          "type": "bytes"
        }
      ],
      "name": "safeTransferFrom",
      "outputs": [],
      "stateMutability": "nonpayable",
      "type": "function"
    },
    {
      "inputs": [
        {
          "internalType": "address",
          "name": "operator",
          "type": "address"
        },
        {
          "internalType": "bool",
          "name": "approved",
          "type": "bool"
        }
      ],
      "name": "setApprovalForAll",
      "outputs": [],
      "stateMutability": "nonpayable",
      "type": "function"
    },
    {
      "inputs": [
        {
          "internalType": "bytes4",
          "name": "interfaceId",
          "type": "bytes4"
        }
      ],
      "name": "supportsInterface",
      "outputs": [
        {
          "internalType": "bool",
          "name": "",
          "type": "bool"
        }
      ],
      "stateMutability": "view",
      "type": "function"
    },
    {
      "inputs": [
        {
          "internalType": "uint256",
          "name": "id",
          "type": "uint256"
        }
      ],
      "name": "totalSupply",
      "outputs": [
        {
          "internalType": "uint256",
          "name": "",
          "type": "uint256"
        }
      ],
      "stateMutability": "view",
      "type": "function"
    },
    {
      "inputs": [
        {
          "internalType": "address",
          "name": "newOwner",
          "type": "address"
        }
      ],
      "name": "transferOwnership",
      "outputs": [],
      "stateMutability": "nonpayable",
      "type": "function"
    },
    {
      "inputs": [
        {
          "internalType": "string",
          "name": "newuri",
          "type": "string"
        }
      ],
      "name": "setURI",
      "outputs": [],
      "stateMutability": "nonpayable",
      "type": "function"
    },
    {
      "inputs": [
        {
          "internalType": "uint256",
          "name": "tokenId",
          "type": "uint256"
        }
      ],
      "name": "uri",
      "outputs": [
        {
          "internalType": "string",
          "name": "",
          "type": "string"
        }
      ],
      "stateMutability": "view",
      "type": "function"
    },
    {
      "inputs": [
        {
          "internalType": "uint256",
          "name": "tokenId",
          "type": "uint256"
        },
        {
          "internalType": "string",
          "name": "tokenURI",
          "type": "string"
        }
      ],
      "name": "setTokenUri",
      "outputs": [],
      "stateMutability": "nonpayable",
      "type": "function"
    },
    {
      "inputs": [
        {
          "internalType": "address",
          "name": "account",
          "type": "address"
        },
        {
          "internalType": "uint256",
          "name": "id",
          "type": "uint256"
        },
        {
          "internalType": "uint256",
          "name": "amount",
          "type": "uint256"
        },
        {
          "internalType": "bytes",
          "name": "data",
          "type": "bytes"
        }
      ],
      "name": "mint",
      "outputs": [],
      "stateMutability": "nonpayable",
      "type": "function"
    },
    {
      "inputs": [
        {
          "internalType": "address[]",
          "name": "accounts",
          "type": "address[]"
        },
        {
          "internalType": "uint256",
          "name": "id",
          "type": "uint256"
        },
        {
          "internalType": "bytes",
          "name": "data",
          "type": "bytes"
        }
      ],
      "name": "bulk_mint",
      "outputs": [],
      "stateMutability": "nonpayable",
      "type": "function"
    },
    {
      "inputs": [
        {
          "internalType": "address",
          "name": "to",
          "type": "address"
        },
        {
          "internalType": "uint256[]",
          "name": "ids",
          "type": "uint256[]"
        },
        {
          "internalType": "uint256[]",
          "name": "amounts",
          "type": "uint256[]"
        },
        {
          "internalType": "bytes",
          "name": "data",
          "type": "bytes"
        }
      ],
      "name": "mintBatch",
      "outputs": [],
      "stateMutability": "nonpayable",
      "type": "function"
    }
  ],
  "bytecode": "0x60806040523480156200001157600080fd5b506040518060400160405280601f81526020017f68747470733a2f2f7365656442617463682e636f6d2f7b69647d2e6a736f6e0081525062000059816200008060201b60201c565b506200007a6200006e6200009560201b60201c565b6200009d60201b60201c565b620004c4565b8060029081620000919190620003dd565b5050565b600033905090565b6000600360009054906101000a900473ffffffffffffffffffffffffffffffffffffffff16905081600360006101000a81548173ffffffffffffffffffffffffffffffffffffffff021916908373ffffffffffffffffffffffffffffffffffffffff1602179055508173ffffffffffffffffffffffffffffffffffffffff168173ffffffffffffffffffffffffffffffffffffffff167f8be0079c531659141344cd1fd0a4f28419497f9722a3daafe3b4186f6b6457e060405160405180910390a35050565b600081519050919050565b7f4e487b7100000000000000000000000000000000000000000000000000000000600052604160045260246000fd5b7f4e487b7100000000000000000000000000000000000000000000000000000000600052602260045260246000fd5b60006002820490506001821680620001e557607f821691505b602082108103620001fb57620001fa6200019d565b5b50919050565b60008190508160005260206000209050919050565b60006020601f8301049050919050565b600082821b905092915050565b600060088302620002657fffffffffffffffffffffffffffffffffffffffffffffffffffffffffffffffff8262000226565b62000271868362000226565b95508019841693508086168417925050509392505050565b6000819050919050565b6000819050919050565b6000620002be620002b8620002b28462000289565b62000293565b62000289565b9050919050565b6000819050919050565b620002da836200029d565b620002f2620002e982620002c5565b84845462000233565b825550505050565b600090565b62000309620002fa565b62000316818484620002cf565b505050565b5b818110156200033e5762000332600082620002ff565b6001810190506200031c565b5050565b601f8211156200038d57620003578162000201565b620003628462000216565b8101602085101562000372578190505b6200038a620003818562000216565b8301826200031b565b50505b505050565b600082821c905092915050565b6000620003b26000198460080262000392565b1980831691505092915050565b6000620003cd83836200039f565b9150826002028217905092915050565b620003e88262000163565b67ffffffffffffffff8111156200040457620004036200016e565b5b620004108254620001cc565b6200041d82828562000342565b600060209050601f83116001811462000455576000841562000440578287015190505b6200044c8582620003bf565b865550620004bc565b601f198416620004658662000201565b60005b828110156200048f5784890151825560018201915060208501945060208101905062000468565b86831015620004af5784890151620004ab601f8916826200039f565b8355505b6001600288020188555050505b505050505050565b61365480620004d46000396000f3fe608060405234801561001057600080fd5b50600436106101155760003560e01c8063715018a6116100a2578063a385d38211610071578063a385d382146102da578063bd85b039146102f6578063e985e9c514610326578063f242432a14610356578063f2fde38b1461037257610115565b8063715018a61461027a578063731133e9146102845780638da5cb5b146102a0578063a22cb465146102be57610115565b80631f7fdffa116100e95780631f7fdffa146101c65780632eb2c2d6146101e25780634e1273f4146101fe5780634f558e791461022e57806357f7789e1461025e57610115565b8062fdd58e1461011a57806301ffc9a71461014a57806302fe53051461017a5780630e89341c14610196575b600080fd5b610134600480360381019061012f9190611d11565b61038e565b6040516101419190611d60565b60405180910390f35b610164600480360381019061015f9190611dd3565b610456565b6040516101719190611e1b565b60405180910390f35b610194600480360381019061018f9190611f7c565b610538565b005b6101b060048036038101906101ab9190611fc5565b61054c565b6040516101bd919061207a565b60405180910390f35b6101e060048036038101906101db9190612205565b6105f1565b005b6101fc60048036038101906101f791906122c0565b61060b565b005b61021860048036038101906102139190612452565b6106ac565b6040516102259190612588565b60405180910390f35b61024860048036038101906102439190611fc5565b6107c5565b6040516102559190611e1b565b60405180910390f35b610278600480360381019061027391906125aa565b6107d9565b005b610282610806565b005b61029e60048036038101906102999190612606565b61081a565b005b6102a8610834565b6040516102b59190612698565b60405180910390f35b6102d860048036038101906102d391906126df565b61085e565b005b6102f460048036038101906102ef919061271f565b610874565b005b610310600480360381019061030b9190611fc5565b6108c6565b60405161031d9190611d60565b60405180910390f35b610340600480360381019061033b91906127aa565b6108e3565b60405161034d9190611e1b565b60405180910390f35b610370600480360381019061036b91906127ea565b610977565b005b61038c60048036038101906103879190612881565b610a18565b005b60008073ffffffffffffffffffffffffffffffffffffffff168373ffffffffffffffffffffffffffffffffffffffff16036103fe576040517f08c379a00000000000000000000000000000000000000000000000000000000081526004016103f590612920565b60405180910390fd5b60008083815260200190815260200160002060008473ffffffffffffffffffffffffffffffffffffffff1673ffffffffffffffffffffffffffffffffffffffff16815260200190815260200160002054905092915050565b60007fd9b67a26000000000000000000000000000000000000000000000000000000007bffffffffffffffffffffffffffffffffffffffffffffffffffffffff1916827bffffffffffffffffffffffffffffffffffffffffffffffffffffffff1916148061052157507f0e89341c000000000000000000000000000000000000000000000000000000007bffffffffffffffffffffffffffffffffffffffffffffffffffffffff1916827bffffffffffffffffffffffffffffffffffffffffffffffffffffffff1916145b80610531575061053082610a9b565b5b9050919050565b610540610b05565b61054981610b83565b50565b606060056000838152602001908152602001600020805461056c9061296f565b80601f01602080910402602001604051908101604052809291908181526020018280546105989061296f565b80156105e55780601f106105ba576101008083540402835291602001916105e5565b820191906000526020600020905b8154815290600101906020018083116105c857829003601f168201915b50505050509050919050565b6105f9610b05565b61060584848484610b96565b50505050565b610613610dc2565b73ffffffffffffffffffffffffffffffffffffffff168573ffffffffffffffffffffffffffffffffffffffff161480610659575061065885610653610dc2565b6108e3565b5b610698576040517f08c379a000000000000000000000000000000000000000000000000000000000815260040161068f90612a12565b60405180910390fd5b6106a58585858585610dca565b5050505050565b606081518351146106f2576040517f08c379a00000000000000000000000000000000000000000000000000000000081526004016106e990612aa4565b60405180910390fd5b6000835167ffffffffffffffff81111561070f5761070e611e51565b5b60405190808252806020026020018201604052801561073d5781602001602082028036833780820191505090505b50905060005b84518110156107ba5761078a85828151811061076257610761612ac4565b5b602002602001015185838151811061077d5761077c612ac4565b5b602002602001015161038e565b82828151811061079d5761079c612ac4565b5b602002602001018181525050806107b390612b22565b9050610743565b508091505092915050565b6000806107d1836108c6565b119050919050565b6107e1610b05565b806005600084815260200190815260200160002090816108019190612d16565b505050565b61080e610b05565b61081860006110eb565b565b610822610b05565b61082e848484846111b1565b50505050565b6000600360009054906101000a900473ffffffffffffffffffffffffffffffffffffffff16905090565b610870610869610dc2565b8383611361565b5050565b61087c610b05565b60008351905060005b818110156108bf576108b48582815181106108a3576108a2612ac4565b5b6020026020010151856001866111b1565b806001019050610885565b5050505050565b600060046000838152602001908152602001600020549050919050565b6000600160008473ffffffffffffffffffffffffffffffffffffffff1673ffffffffffffffffffffffffffffffffffffffff16815260200190815260200160002060008373ffffffffffffffffffffffffffffffffffffffff1673ffffffffffffffffffffffffffffffffffffffff16815260200190815260200160002060009054906101000a900460ff16905092915050565b61097f610dc2565b73ffffffffffffffffffffffffffffffffffffffff168573ffffffffffffffffffffffffffffffffffffffff1614806109c557506109c4856109bf610dc2565b6108e3565b5b610a04576040517f08c379a00000000000000000000000000000000000000000000000000000000081526004016109fb90612a12565b60405180910390fd5b610a1185858585856114cd565b5050505050565b610a20610b05565b600073ffffffffffffffffffffffffffffffffffffffff168173ffffffffffffffffffffffffffffffffffffffff1603610a8f576040517f08c379a0000000000000000000000000000000000000000000000000000000008152600401610a8690612e5a565b60405180910390fd5b610a98816110eb565b50565b60007f01ffc9a7000000000000000000000000000000000000000000000000000000007bffffffffffffffffffffffffffffffffffffffffffffffffffffffff1916827bffffffffffffffffffffffffffffffffffffffffffffffffffffffff1916149050919050565b610b0d610dc2565b73ffffffffffffffffffffffffffffffffffffffff16610b2b610834565b73ffffffffffffffffffffffffffffffffffffffff1614610b81576040517f08c379a0000000000000000000000000000000000000000000000000000000008152600401610b7890612ec6565b60405180910390fd5b565b8060029081610b929190612d16565b5050565b600073ffffffffffffffffffffffffffffffffffffffff168473ffffffffffffffffffffffffffffffffffffffff1603610c05576040517f08c379a0000000000000000000000000000000000000000000000000000000008152600401610bfc90612f58565b60405180910390fd5b8151835114610c49576040517f08c379a0000000000000000000000000000000000000000000000000000000008152600401610c4090612fea565b60405180910390fd5b6000610c53610dc2565b9050610c6481600087878787611768565b60005b8451811015610d1d57838181518110610c8357610c82612ac4565b5b6020026020010151600080878481518110610ca157610ca0612ac4565b5b6020026020010151815260200190815260200160002060008873ffffffffffffffffffffffffffffffffffffffff1673ffffffffffffffffffffffffffffffffffffffff1681526020019081526020016000206000828254610d03919061300a565b925050819055508080610d1590612b22565b915050610c67565b508473ffffffffffffffffffffffffffffffffffffffff16600073ffffffffffffffffffffffffffffffffffffffff168273ffffffffffffffffffffffffffffffffffffffff167f4a39dc06d4c0dbc64b70af90fd698a233a518aa5d07e595d983b8c0526c8f7fb8787604051610d95929190613060565b60405180910390a4610dac81600087878787611816565b610dbb8160008787878761181e565b5050505050565b600033905090565b8151835114610e0e576040517f08c379a0000000000000000000000000000000000000000000000000000000008152600401610e0590612fea565b60405180910390fd5b600073ffffffffffffffffffffffffffffffffffffffff168473ffffffffffffffffffffffffffffffffffffffff1603610e7d576040517f08c379a0000000000000000000000000000000000000000000000000000000008152600401610e7490613109565b60405180910390fd5b6000610e87610dc2565b9050610e97818787878787611768565b60005b8451811015611048576000858281518110610eb857610eb7612ac4565b5b602002602001015190506000858381518110610ed757610ed6612ac4565b5b60200260200101519050600080600084815260200190815260200160002060008b73ffffffffffffffffffffffffffffffffffffffff1673ffffffffffffffffffffffffffffffffffffffff16815260200190815260200160002054905081811015610f78576040517f08c379a0000000000000000000000000000000000000000000000000000000008152600401610f6f9061319b565b60405180910390fd5b81810360008085815260200190815260200160002060008c73ffffffffffffffffffffffffffffffffffffffff1673ffffffffffffffffffffffffffffffffffffffff168152602001908152602001600020819055508160008085815260200190815260200160002060008b73ffffffffffffffffffffffffffffffffffffffff1673ffffffffffffffffffffffffffffffffffffffff168152602001908152602001600020600082825461102d919061300a565b925050819055505050508061104190612b22565b9050610e9a565b508473ffffffffffffffffffffffffffffffffffffffff168673ffffffffffffffffffffffffffffffffffffffff168273ffffffffffffffffffffffffffffffffffffffff167f4a39dc06d4c0dbc64b70af90fd698a233a518aa5d07e595d983b8c0526c8f7fb87876040516110bf929190613060565b60405180910390a46110d5818787878787611816565b6110e381878787878761181e565b505050505050565b6000600360009054906101000a900473ffffffffffffffffffffffffffffffffffffffff16905081600360006101000a81548173ffffffffffffffffffffffffffffffffffffffff021916908373ffffffffffffffffffffffffffffffffffffffff1602179055508173ffffffffffffffffffffffffffffffffffffffff168173ffffffffffffffffffffffffffffffffffffffff167f8be0079c531659141344cd1fd0a4f28419497f9722a3daafe3b4186f6b6457e060405160405180910390a35050565b600073ffffffffffffffffffffffffffffffffffffffff168473ffffffffffffffffffffffffffffffffffffffff1603611220576040517f08c379a000000000000000000000000000000000000000000000000000000000815260040161121790612f58565b60405180910390fd5b600061122a610dc2565b90506000611237856119f5565b90506000611244856119f5565b905061125583600089858589611768565b8460008088815260200190815260200160002060008973ffffffffffffffffffffffffffffffffffffffff1673ffffffffffffffffffffffffffffffffffffffff16815260200190815260200160002060008282546112b4919061300a565b925050819055508673ffffffffffffffffffffffffffffffffffffffff16600073ffffffffffffffffffffffffffffffffffffffff168473ffffffffffffffffffffffffffffffffffffffff167fc3d58168c5ae7397731d063d5bbf3d657854427343f4c083240f7aacaa2d0f6289896040516113329291906131bb565b60405180910390a461134983600089858589611816565b61135883600089898989611a6f565b50505050505050565b8173ffffffffffffffffffffffffffffffffffffffff168373ffffffffffffffffffffffffffffffffffffffff16036113cf576040517f08c379a00000000000000000000000000000000000000000000000000000000081526004016113c690613256565b60405180910390fd5b80600160008573ffffffffffffffffffffffffffffffffffffffff1673ffffffffffffffffffffffffffffffffffffffff16815260200190815260200160002060008473ffffffffffffffffffffffffffffffffffffffff1673ffffffffffffffffffffffffffffffffffffffff16815260200190815260200160002060006101000a81548160ff0219169083151502179055508173ffffffffffffffffffffffffffffffffffffffff168373ffffffffffffffffffffffffffffffffffffffff167f17307eab39ab6107e8899845ad3d59bd9653f200f220920489ca2b5937696c31836040516114c09190611e1b565b60405180910390a3505050565b600073ffffffffffffffffffffffffffffffffffffffff168473ffffffffffffffffffffffffffffffffffffffff160361153c576040517f08c379a000000000000000000000000000000000000000000000000000000000815260040161153390613109565b60405180910390fd5b6000611546610dc2565b90506000611553856119f5565b90506000611560856119f5565b9050611570838989858589611768565b600080600088815260200190815260200160002060008a73ffffffffffffffffffffffffffffffffffffffff1673ffffffffffffffffffffffffffffffffffffffff16815260200190815260200160002054905085811015611607576040517f08c379a00000000000000000000000000000000000000000000000000000000081526004016115fe9061319b565b60405180910390fd5b85810360008089815260200190815260200160002060008b73ffffffffffffffffffffffffffffffffffffffff1673ffffffffffffffffffffffffffffffffffffffff168152602001908152602001600020819055508560008089815260200190815260200160002060008a73ffffffffffffffffffffffffffffffffffffffff1673ffffffffffffffffffffffffffffffffffffffff16815260200190815260200160002060008282546116bc919061300a565b925050819055508773ffffffffffffffffffffffffffffffffffffffff168973ffffffffffffffffffffffffffffffffffffffff168573ffffffffffffffffffffffffffffffffffffffff167fc3d58168c5ae7397731d063d5bbf3d657854427343f4c083240f7aacaa2d0f628a8a6040516117399291906131bb565b60405180910390a461174f848a8a86868a611816565b61175d848a8a8a8a8a611a6f565b505050505050505050565b600073ffffffffffffffffffffffffffffffffffffffff168573ffffffffffffffffffffffffffffffffffffffff1614806117cf5750600073ffffffffffffffffffffffffffffffffffffffff168473ffffffffffffffffffffffffffffffffffffffff16145b61180e576040517f08c379a0000000000000000000000000000000000000000000000000000000008152600401611805906132c2565b60405180910390fd5b505050505050565b505050505050565b61183d8473ffffffffffffffffffffffffffffffffffffffff16611c46565b156119ed578373ffffffffffffffffffffffffffffffffffffffff1663bc197c8187878686866040518663ffffffff1660e01b8152600401611883959493929190613337565b6020604051808303816000875af19250505080156118bf57506040513d601f19601f820116820180604052508101906118bc91906133b4565b60015b611964576118cb6133ee565b806308c379a00361192757506118df613410565b806118ea5750611929565b806040517f08c379a000000000000000000000000000000000000000000000000000000000815260040161191e919061207a565b60405180910390fd5b505b6040517f08c379a000000000000000000000000000000000000000000000000000000000815260040161195b90613512565b60405180910390fd5b63bc197c8160e01b7bffffffffffffffffffffffffffffffffffffffffffffffffffffffff1916817bffffffffffffffffffffffffffffffffffffffffffffffffffffffff1916146119eb576040517f08c379a00000000000000000000000000000000000000000000000000000000081526004016119e2906135a4565b60405180910390fd5b505b505050505050565b60606000600167ffffffffffffffff811115611a1457611a13611e51565b5b604051908082528060200260200182016040528015611a425781602001602082028036833780820191505090505b5090508281600081518110611a5a57611a59612ac4565b5b60200260200101818152505080915050919050565b611a8e8473ffffffffffffffffffffffffffffffffffffffff16611c46565b15611c3e578373ffffffffffffffffffffffffffffffffffffffff1663f23a6e6187878686866040518663ffffffff1660e01b8152600401611ad49594939291906135c4565b6020604051808303816000875af1925050508015611b1057506040513d601f19601f82011682018060405250810190611b0d91906133b4565b60015b611bb557611b1c6133ee565b806308c379a003611b785750611b30613410565b80611b3b5750611b7a565b806040517f08c379a0000000000000000000000000000000000000000000000000000000008152600401611b6f919061207a565b60405180910390fd5b505b6040517f08c379a0000000000000000000000000000000000000000000000000000000008152600401611bac90613512565b60405180910390fd5b63f23a6e6160e01b7bffffffffffffffffffffffffffffffffffffffffffffffffffffffff1916817bffffffffffffffffffffffffffffffffffffffffffffffffffffffff191614611c3c576040517f08c379a0000000000000000000000000000000000000000000000000000000008152600401611c33906135a4565b60405180910390fd5b505b505050505050565b6000808273ffffffffffffffffffffffffffffffffffffffff163b119050919050565b6000604051905090565b600080fd5b600080fd5b600073ffffffffffffffffffffffffffffffffffffffff82169050919050565b6000611ca882611c7d565b9050919050565b611cb881611c9d565b8114611cc357600080fd5b50565b600081359050611cd581611caf565b92915050565b6000819050919050565b611cee81611cdb565b8114611cf957600080fd5b50565b600081359050611d0b81611ce5565b92915050565b60008060408385031215611d2857611d27611c73565b5b6000611d3685828601611cc6565b9250506020611d4785828601611cfc565b9150509250929050565b611d5a81611cdb565b82525050565b6000602082019050611d756000830184611d51565b92915050565b60007fffffffff0000000000000000000000000000000000000000000000000000000082169050919050565b611db081611d7b565b8114611dbb57600080fd5b50565b600081359050611dcd81611da7565b92915050565b600060208284031215611de957611de8611c73565b5b6000611df784828501611dbe565b91505092915050565b60008115159050919050565b611e1581611e00565b82525050565b6000602082019050611e306000830184611e0c565b92915050565b600080fd5b600080fd5b6000601f19601f8301169050919050565b7f4e487b7100000000000000000000000000000000000000000000000000000000600052604160045260246000fd5b611e8982611e40565b810181811067ffffffffffffffff82111715611ea857611ea7611e51565b5b80604052505050565b6000611ebb611c69565b9050611ec78282611e80565b919050565b600067ffffffffffffffff821115611ee757611ee6611e51565b5b611ef082611e40565b9050602081019050919050565b82818337600083830152505050565b6000611f1f611f1a84611ecc565b611eb1565b905082815260208101848484011115611f3b57611f3a611e3b565b5b611f46848285611efd565b509392505050565b600082601f830112611f6357611f62611e36565b5b8135611f73848260208601611f0c565b91505092915050565b600060208284031215611f9257611f91611c73565b5b600082013567ffffffffffffffff811115611fb057611faf611c78565b5b611fbc84828501611f4e565b91505092915050565b600060208284031215611fdb57611fda611c73565b5b6000611fe984828501611cfc565b91505092915050565b600081519050919050565b600082825260208201905092915050565b60005b8381101561202c578082015181840152602081019050612011565b8381111561203b576000848401525b50505050565b600061204c82611ff2565b6120568185611ffd565b935061206681856020860161200e565b61206f81611e40565b840191505092915050565b600060208201905081810360008301526120948184612041565b905092915050565b600067ffffffffffffffff8211156120b7576120b6611e51565b5b602082029050602081019050919050565b600080fd5b60006120e06120db8461209c565b611eb1565b90508083825260208201905060208402830185811115612103576121026120c8565b5b835b8181101561212c57806121188882611cfc565b845260208401935050602081019050612105565b5050509392505050565b600082601f83011261214b5761214a611e36565b5b813561215b8482602086016120cd565b91505092915050565b600067ffffffffffffffff82111561217f5761217e611e51565b5b61218882611e40565b9050602081019050919050565b60006121a86121a384612164565b611eb1565b9050828152602081018484840111156121c4576121c3611e3b565b5b6121cf848285611efd565b509392505050565b600082601f8301126121ec576121eb611e36565b5b81356121fc848260208601612195565b91505092915050565b6000806000806080858703121561221f5761221e611c73565b5b600061222d87828801611cc6565b945050602085013567ffffffffffffffff81111561224e5761224d611c78565b5b61225a87828801612136565b935050604085013567ffffffffffffffff81111561227b5761227a611c78565b5b61228787828801612136565b925050606085013567ffffffffffffffff8111156122a8576122a7611c78565b5b6122b4878288016121d7565b91505092959194509250565b600080600080600060a086880312156122dc576122db611c73565b5b60006122ea88828901611cc6565b95505060206122fb88828901611cc6565b945050604086013567ffffffffffffffff81111561231c5761231b611c78565b5b61232888828901612136565b935050606086013567ffffffffffffffff81111561234957612348611c78565b5b61235588828901612136565b925050608086013567ffffffffffffffff81111561237657612375611c78565b5b612382888289016121d7565b9150509295509295909350565b600067ffffffffffffffff8211156123aa576123a9611e51565b5b602082029050602081019050919050565b60006123ce6123c98461238f565b611eb1565b905080838252602082019050602084028301858111156123f1576123f06120c8565b5b835b8181101561241a57806124068882611cc6565b8452602084019350506020810190506123f3565b5050509392505050565b600082601f83011261243957612438611e36565b5b81356124498482602086016123bb565b91505092915050565b6000806040838503121561246957612468611c73565b5b600083013567ffffffffffffffff81111561248757612486611c78565b5b61249385828601612424565b925050602083013567ffffffffffffffff8111156124b4576124b3611c78565b5b6124c085828601612136565b9150509250929050565b600081519050919050565b600082825260208201905092915050565b6000819050602082019050919050565b6124ff81611cdb565b82525050565b600061251183836124f6565b60208301905092915050565b6000602082019050919050565b6000612535826124ca565b61253f81856124d5565b935061254a836124e6565b8060005b8381101561257b5781516125628882612505565b975061256d8361251d565b92505060018101905061254e565b5085935050505092915050565b600060208201905081810360008301526125a2818461252a565b905092915050565b600080604083850312156125c1576125c0611c73565b5b60006125cf85828601611cfc565b925050602083013567ffffffffffffffff8111156125f0576125ef611c78565b5b6125fc85828601611f4e565b9150509250929050565b600080600080608085870312156126205761261f611c73565b5b600061262e87828801611cc6565b945050602061263f87828801611cfc565b935050604061265087828801611cfc565b925050606085013567ffffffffffffffff81111561267157612670611c78565b5b61267d878288016121d7565b91505092959194509250565b61269281611c9d565b82525050565b60006020820190506126ad6000830184612689565b92915050565b6126bc81611e00565b81146126c757600080fd5b50565b6000813590506126d9816126b3565b92915050565b600080604083850312156126f6576126f5611c73565b5b600061270485828601611cc6565b9250506020612715858286016126ca565b9150509250929050565b60008060006060848603121561273857612737611c73565b5b600084013567ffffffffffffffff81111561275657612755611c78565b5b61276286828701612424565b935050602061277386828701611cfc565b925050604084013567ffffffffffffffff81111561279457612793611c78565b5b6127a0868287016121d7565b9150509250925092565b600080604083850312156127c1576127c0611c73565b5b60006127cf85828601611cc6565b92505060206127e085828601611cc6565b9150509250929050565b600080600080600060a0868803121561280657612805611c73565b5b600061281488828901611cc6565b955050602061282588828901611cc6565b945050604061283688828901611cfc565b935050606061284788828901611cfc565b925050608086013567ffffffffffffffff81111561286857612867611c78565b5b612874888289016121d7565b9150509295509295909350565b60006020828403121561289757612896611c73565b5b60006128a584828501611cc6565b91505092915050565b7f455243313135353a2061646472657373207a65726f206973206e6f742061207660008201527f616c6964206f776e657200000000000000000000000000000000000000000000602082015250565b600061290a602a83611ffd565b9150612915826128ae565b604082019050919050565b60006020820190508181036000830152612939816128fd565b9050919050565b7f4e487b7100000000000000000000000000000000000000000000000000000000600052602260045260246000fd5b6000600282049050600182168061298757607f821691505b60208210810361299a57612999612940565b5b50919050565b7f455243313135353a2063616c6c6572206973206e6f7420746f6b656e206f776e60008201527f6572206e6f7220617070726f7665640000000000000000000000000000000000602082015250565b60006129fc602f83611ffd565b9150612a07826129a0565b604082019050919050565b60006020820190508181036000830152612a2b816129ef565b9050919050565b7f455243313135353a206163636f756e747320616e6420696473206c656e67746860008201527f206d69736d617463680000000000000000000000000000000000000000000000602082015250565b6000612a8e602983611ffd565b9150612a9982612a32565b604082019050919050565b60006020820190508181036000830152612abd81612a81565b9050919050565b7f4e487b7100000000000000000000000000000000000000000000000000000000600052603260045260246000fd5b7f4e487b7100000000000000000000000000000000000000000000000000000000600052601160045260246000fd5b6000612b2d82611cdb565b91507fffffffffffffffffffffffffffffffffffffffffffffffffffffffffffffffff8203612b5f57612b5e612af3565b5b600182019050919050565b60008190508160005260206000209050919050565b60006020601f8301049050919050565b600082821b905092915050565b600060088302612bcc7fffffffffffffffffffffffffffffffffffffffffffffffffffffffffffffffff82612b8f565b612bd68683612b8f565b95508019841693508086168417925050509392505050565b6000819050919050565b6000612c13612c0e612c0984611cdb565b612bee565b611cdb565b9050919050565b6000819050919050565b612c2d83612bf8565b612c41612c3982612c1a565b848454612b9c565b825550505050565b600090565b612c56612c49565b612c61818484612c24565b505050565b5b81811015612c8557612c7a600082612c4e565b600181019050612c67565b5050565b601f821115612cca57612c9b81612b6a565b612ca484612b7f565b81016020851015612cb3578190505b612cc7612cbf85612b7f565b830182612c66565b50505b505050565b600082821c905092915050565b6000612ced60001984600802612ccf565b1980831691505092915050565b6000612d068383612cdc565b9150826002028217905092915050565b612d1f82611ff2565b67ffffffffffffffff811115612d3857612d37611e51565b5b612d42825461296f565b612d4d828285612c89565b600060209050601f831160018114612d805760008415612d6e578287015190505b612d788582612cfa565b865550612de0565b601f198416612d8e86612b6a565b60005b82811015612db657848901518255600182019150602085019450602081019050612d91565b86831015612dd35784890151612dcf601f891682612cdc565b8355505b6001600288020188555050505b505050505050565b7f4f776e61626c653a206e6577206f776e657220697320746865207a65726f206160008201527f6464726573730000000000000000000000000000000000000000000000000000602082015250565b6000612e44602683611ffd565b9150612e4f82612de8565b604082019050919050565b60006020820190508181036000830152612e7381612e37565b9050919050565b7f4f776e61626c653a2063616c6c6572206973206e6f7420746865206f776e6572600082015250565b6000612eb0602083611ffd565b9150612ebb82612e7a565b602082019050919050565b60006020820190508181036000830152612edf81612ea3565b9050919050565b7f455243313135353a206d696e7420746f20746865207a65726f2061646472657360008201527f7300000000000000000000000000000000000000000000000000000000000000602082015250565b6000612f42602183611ffd565b9150612f4d82612ee6565b604082019050919050565b60006020820190508181036000830152612f7181612f35565b9050919050565b7f455243313135353a2069647320616e6420616d6f756e7473206c656e6774682060008201527f6d69736d61746368000000000000000000000000000000000000000000000000602082015250565b6000612fd4602883611ffd565b9150612fdf82612f78565b604082019050919050565b6000602082019050818103600083015261300381612fc7565b9050919050565b600061301582611cdb565b915061302083611cdb565b9250827fffffffffffffffffffffffffffffffffffffffffffffffffffffffffffffffff0382111561305557613054612af3565b5b828201905092915050565b6000604082019050818103600083015261307a818561252a565b9050818103602083015261308e818461252a565b90509392505050565b7f455243313135353a207472616e7366657220746f20746865207a65726f20616460008201527f6472657373000000000000000000000000000000000000000000000000000000602082015250565b60006130f3602583611ffd565b91506130fe82613097565b604082019050919050565b60006020820190508181036000830152613122816130e6565b9050919050565b7f455243313135353a20696e73756666696369656e742062616c616e636520666f60008201527f72207472616e7366657200000000000000000000000000000000000000000000602082015250565b6000613185602a83611ffd565b915061319082613129565b604082019050919050565b600060208201905081810360008301526131b481613178565b9050919050565b60006040820190506131d06000830185611d51565b6131dd6020830184611d51565b9392505050565b7f455243313135353a2073657474696e6720617070726f76616c2073746174757360008201527f20666f722073656c660000000000000000000000000000000000000000000000602082015250565b6000613240602983611ffd565b915061324b826131e4565b604082019050919050565b6000602082019050818103600083015261326f81613233565b9050919050565b7f4e6f7420616c6c6f77656420746f207472616e7366657220746f6b656e000000600082015250565b60006132ac601d83611ffd565b91506132b782613276565b602082019050919050565b600060208201905081810360008301526132db8161329f565b9050919050565b600081519050919050565b600082825260208201905092915050565b6000613309826132e2565b61331381856132ed565b935061332381856020860161200e565b61332c81611e40565b840191505092915050565b600060a08201905061334c6000830188612689565b6133596020830187612689565b818103604083015261336b818661252a565b9050818103606083015261337f818561252a565b9050818103608083015261339381846132fe565b90509695505050505050565b6000815190506133ae81611da7565b92915050565b6000602082840312156133ca576133c9611c73565b5b60006133d88482850161339f565b91505092915050565b60008160e01c9050919050565b600060033d111561340d5760046000803e61340a6000516133e1565b90505b90565b600060443d1061349d57613422611c69565b60043d036004823e80513d602482011167ffffffffffffffff8211171561344a57505061349d565b808201805167ffffffffffffffff811115613468575050505061349d565b80602083010160043d03850181111561348557505050505061349d565b61349482602001850186611e80565b82955050505050505b90565b7f455243313135353a207472616e7366657220746f206e6f6e204552433131353560008201527f526563656976657220696d706c656d656e746572000000000000000000000000602082015250565b60006134fc603483611ffd565b9150613507826134a0565b604082019050919050565b6000602082019050818103600083015261352b816134ef565b9050919050565b7f455243313135353a204552433131353552656365697665722072656a6563746560008201527f6420746f6b656e73000000000000000000000000000000000000000000000000602082015250565b600061358e602883611ffd565b915061359982613532565b604082019050919050565b600060208201905081810360008301526135bd81613581565b9050919050565b600060a0820190506135d96000830188612689565b6135e66020830187612689565b6135f36040830186611d51565b6136006060830185611d51565b818103608083015261361281846132fe565b9050969550505050505056fea264697066735822122009396ff9ab966d72829b8d3e18f9c9365ae761023e68bbabe61cdac8058ac8bf64736f6c634300080f0033",
  "immutableReferences": {},
  "source": "// SPDX-License-Identifier: MIT\npragma solidity 0.8.15;\n\nimport \"@openzeppelin/contracts/token/ERC1155/ERC1155.sol\";\nimport \"@openzeppelin/contracts/token/ERC1155/extensions/ERC1155Supply.sol\";\nimport \"@openzeppelin/contracts/access/Ownable.sol\";\n\ncontract SeedBatch is ERC1155, Ownable, ERC1155Supply {\n    \n    mapping (uint256 => string) private _tokenURIs;\n  \n    constructor() ERC1155(\"https://seedBatch.com/{id}.json\") {}\n  \n    function setURI(string memory newuri) public onlyOwner {\n        _setURI(newuri);\n    }\n\n    function uri(uint256 tokenId) override public view returns (string memory) { \n        return(_tokenURIs[tokenId]); \n    } \n\n    function setTokenUri(uint256 tokenId, string memory tokenURI) public onlyOwner {\n         _tokenURIs[tokenId] = tokenURI;\n    } \n\n    function mint(address account, uint256 id, uint256 amount, bytes memory data) public onlyOwner {\n        _mint(account, id, amount, data);\n    }\n\n    function bulk_mint(address[] memory accounts, uint256 id, bytes memory data) public onlyOwner {\n        uint256 n = accounts.length;\n\n        for (uint i=0; i<n; ) {\n            _mint(accounts[i], id, 1, data);\n            \n            unchecked{++i;}\n        }\n    }\n\n    function mintBatch(address to, uint256[] memory ids, uint256[] memory amounts, bytes memory data) public onlyOwner {\n        _mintBatch(to, ids, amounts, data);\n    }\n\n    // The following functions are overrides required by Solidity.\n    function _beforeTokenTransfer(address operator, address from, address to, uint256[] memory ids, uint256[] memory amounts, bytes memory data) internal override(ERC1155, ERC1155Supply) {\n        require(from == address(0) || to == address(0), \"Not allowed to transfer token\");\n        \n    }\n}",
  "sourcePath": "/home/sordgom/playground/hackathon/project/contracts/SeedBatch.sol",
  "compiler": {
    "name": "solc",
    "version": "0.8.15+commit.e14f2714.Emscripten.clang"
  },
  "schemaVersion": "3.4.8",
  "updatedAt": "2022-09-03T03:19:35.625Z",
  "networkType": "ethereum",
  "devdoc": {
    "kind": "dev",
    "methods": {
      "balanceOf(address,uint256)": {
        "details": "See {IERC1155-balanceOf}. Requirements: - `account` cannot be the zero address."
      },
      "balanceOfBatch(address[],uint256[])": {
        "details": "See {IERC1155-balanceOfBatch}. Requirements: - `accounts` and `ids` must have the same length."
      },
      "exists(uint256)": {
        "details": "Indicates whether any token exist with a given id, or not."
      },
      "isApprovedForAll(address,address)": {
        "details": "See {IERC1155-isApprovedForAll}."
      },
      "owner()": {
        "details": "Returns the address of the current owner."
      },
      "renounceOwnership()": {
        "details": "Leaves the contract without owner. It will not be possible to call `onlyOwner` functions anymore. Can only be called by the current owner. NOTE: Renouncing ownership will leave the contract without an owner, thereby removing any functionality that is only available to the owner."
      },
      "safeBatchTransferFrom(address,address,uint256[],uint256[],bytes)": {
        "details": "See {IERC1155-safeBatchTransferFrom}."
      },
      "safeTransferFrom(address,address,uint256,uint256,bytes)": {
        "details": "See {IERC1155-safeTransferFrom}."
      },
      "setApprovalForAll(address,bool)": {
        "details": "See {IERC1155-setApprovalForAll}."
      },
      "supportsInterface(bytes4)": {
        "details": "See {IERC165-supportsInterface}."
      },
      "totalSupply(uint256)": {
        "details": "Total amount of tokens in with a given id."
      },
      "transferOwnership(address)": {
        "details": "Transfers ownership of the contract to a new account (`newOwner`). Can only be called by the current owner."
      }
    },
    "version": 1
  },
  "userdoc": {
    "kind": "user",
    "methods": {},
    "version": 1
  }
}