{
  "contractName": "SeedNFT",
  "abi": [
    {
      "inputs": [
        {
          "internalType": "string",
          "name": "eventName",
          "type": "string"
        },
        {
          "internalType": "string",
          "name": "symbol",
          "type": "string"
        },
        {
          "internalType": "string",
          "name": "Uri",
          "type": "string"
        },
        {
          "internalType": "uint256",
          "name": "timePeriod",
          "type": "uint256"
        }
      ],
      "stateMutability": "nonpayable",
      "type": "constructor"
    },
    {
      "anonymous": false,
      "inputs": [
        {
          "indexed": true,
          "internalType": "address",
          "name": "account",
          "type": "address"
        },
        {
          "indexed": true,
          "internalType": "address",
          "name": "operator",
          "type": "address"
        },
        {
          "indexed": false,
          "internalType": "bool",
          "name": "approved",
          "type": "bool"
        }
      ],
      "name": "ApprovalForAll",
      "type": "event"
    },
    {
      "anonymous": false,
      "inputs": [
        {
          "indexed": true,
          "internalType": "address",
          "name": "previousOwner",
          "type": "address"
        },
        {
          "indexed": true,
          "internalType": "address",
          "name": "newOwner",
          "type": "address"
        }
      ],
      "name": "OwnershipTransferred",
      "type": "event"
    },
    {
      "anonymous": false,
      "inputs": [
        {
          "indexed": true,
          "internalType": "address",
          "name": "operator",
          "type": "address"
        },
        {
          "indexed": true,
          "internalType": "address",
          "name": "from",
          "type": "address"
        },
        {
          "indexed": true,
          "internalType": "address",
          "name": "to",
          "type": "address"
        },
        {
          "indexed": false,
          "internalType": "uint256[]",
          "name": "ids",
          "type": "uint256[]"
        },
        {
          "indexed": false,
          "internalType": "uint256[]",
          "name": "values",
          "type": "uint256[]"
        }
      ],
      "name": "TransferBatch",
      "type": "event"
    },
    {
      "anonymous": false,
      "inputs": [
        {
          "indexed": true,
          "internalType": "address",
          "name": "operator",
          "type": "address"
        },
        {
          "indexed": true,
          "internalType": "address",
          "name": "from",
          "type": "address"
        },
        {
          "indexed": true,
          "internalType": "address",
          "name": "to",
          "type": "address"
        },
        {
          "indexed": false,
          "internalType": "uint256",
          "name": "id",
          "type": "uint256"
        },
        {
          "indexed": false,
          "internalType": "uint256",
          "name": "value",
          "type": "uint256"
        }
      ],
      "name": "TransferSingle",
      "type": "event"
    },
    {
      "anonymous": false,
      "inputs": [
        {
          "indexed": false,
          "internalType": "string",
          "name": "value",
          "type": "string"
        },
        {
          "indexed": true,
          "internalType": "uint256",
          "name": "id",
          "type": "uint256"
        }
      ],
      "name": "URI",
      "type": "event"
    },
    {
      "inputs": [
        {
          "internalType": "address",
          "name": "account",
          "type": "address"
        },
        {
          "internalType": "uint256",
          "name": "id",
          "type": "uint256"
        }
      ],
      "name": "balanceOf",
      "outputs": [
        {
          "internalType": "uint256",
          "name": "",
          "type": "uint256"
        }
      ],
      "stateMutability": "view",
      "type": "function",
      "constant": true
    },
    {
      "inputs": [
        {
          "internalType": "address[]",
          "name": "accounts",
          "type": "address[]"
        },
        {
          "internalType": "uint256[]",
          "name": "ids",
          "type": "uint256[]"
        }
      ],
      "name": "balanceOfBatch",
      "outputs": [
        {
          "internalType": "uint256[]",
          "name": "",
          "type": "uint256[]"
        }
      ],
      "stateMutability": "view",
      "type": "function",
      "constant": true
    },
    {
      "inputs": [
        {
          "internalType": "uint256",
          "name": "id",
          "type": "uint256"
        }
      ],
      "name": "exists",
      "outputs": [
        {
          "internalType": "bool",
          "name": "",
          "type": "bool"
        }
      ],
      "stateMutability": "view",
      "type": "function",
      "constant": true
    },
    {
      "inputs": [
        {
          "internalType": "address",
          "name": "account",
          "type": "address"
        },
        {
          "internalType": "address",
          "name": "operator",
          "type": "address"
        }
      ],
      "name": "isApprovedForAll",
      "outputs": [
        {
          "internalType": "bool",
          "name": "",
          "type": "bool"
        }
      ],
      "stateMutability": "view",
      "type": "function",
      "constant": true
    },
    {
      "inputs": [
        {
          "internalType": "address",
          "name": "to",
          "type": "address"
        },
        {
          "internalType": "uint256[]",
          "name": "ids",
          "type": "uint256[]"
        },
        {
          "internalType": "uint256[]",
          "name": "amounts",
          "type": "uint256[]"
        },
        {
          "internalType": "bytes",
          "name": "data",
          "type": "bytes"
        }
      ],
      "name": "mintBatch",
      "outputs": [],
      "stateMutability": "nonpayable",
      "type": "function"
    },
    {
      "inputs": [],
      "name": "owner",
      "outputs": [
        {
          "internalType": "address",
          "name": "",
          "type": "address"
        }
      ],
      "stateMutability": "view",
      "type": "function",
      "constant": true
    },
    {
      "inputs": [],
      "name": "renounceOwnership",
      "outputs": [],
      "stateMutability": "nonpayable",
      "type": "function"
    },
    {
      "inputs": [
        {
          "internalType": "address",
          "name": "from",
          "type": "address"
        },
        {
          "internalType": "address",
          "name": "to",
          "type": "address"
        },
        {
          "internalType": "uint256[]",
          "name": "ids",
          "type": "uint256[]"
        },
        {
          "internalType": "uint256[]",
          "name": "amounts",
          "type": "uint256[]"
        },
        {
          "internalType": "bytes",
          "name": "data",
          "type": "bytes"
        }
      ],
      "name": "safeBatchTransferFrom",
      "outputs": [],
      "stateMutability": "nonpayable",
      "type": "function"
    },
    {
      "inputs": [
        {
          "internalType": "address",
          "name": "from",
          "type": "address"
        },
        {
          "internalType": "address",
          "name": "to",
          "type": "address"
        },
        {
          "internalType": "uint256",
          "name": "id",
          "type": "uint256"
        },
        {
          "internalType": "uint256",
          "name": "amount",
          "type": "uint256"
        },
        {
          "internalType": "bytes",
          "name": "data",
          "type": "bytes"
        }
      ],
      "name": "safeTransferFrom",
      "outputs": [],
      "stateMutability": "nonpayable",
      "type": "function"
    },
    {
      "inputs": [
        {
          "internalType": "address",
          "name": "operator",
          "type": "address"
        },
        {
          "internalType": "bool",
          "name": "approved",
          "type": "bool"
        }
      ],
      "name": "setApprovalForAll",
      "outputs": [],
      "stateMutability": "nonpayable",
      "type": "function"
    },
    {
      "inputs": [
        {
          "internalType": "uint256",
          "name": "tokenId",
          "type": "uint256"
        },
        {
          "internalType": "string",
          "name": "tokenURI",
          "type": "string"
        }
      ],
      "name": "setTokenUri",
      "outputs": [],
      "stateMutability": "nonpayable",
      "type": "function"
    },
    {
      "inputs": [
        {
          "internalType": "string",
          "name": "newuri",
          "type": "string"
        }
      ],
      "name": "setURI",
      "outputs": [],
      "stateMutability": "nonpayable",
      "type": "function"
    },
    {
      "inputs": [
        {
          "internalType": "bytes4",
          "name": "interfaceId",
          "type": "bytes4"
        }
      ],
      "name": "supportsInterface",
      "outputs": [
        {
          "internalType": "bool",
          "name": "",
          "type": "bool"
        }
      ],
      "stateMutability": "view",
      "type": "function",
      "constant": true
    },
    {
      "inputs": [
        {
          "internalType": "uint256",
          "name": "id",
          "type": "uint256"
        }
      ],
      "name": "totalSupply",
      "outputs": [
        {
          "internalType": "uint256",
          "name": "",
          "type": "uint256"
        }
      ],
      "stateMutability": "view",
      "type": "function",
      "constant": true
    },
    {
      "inputs": [
        {
          "internalType": "address",
          "name": "newOwner",
          "type": "address"
        }
      ],
      "name": "transferOwnership",
      "outputs": [],
      "stateMutability": "nonpayable",
      "type": "function"
    },
    {
      "inputs": [
        {
          "internalType": "uint256",
          "name": "tokenId",
          "type": "uint256"
        }
      ],
      "name": "uri",
      "outputs": [
        {
          "internalType": "string",
          "name": "",
          "type": "string"
        }
      ],
      "stateMutability": "view",
      "type": "function",
      "constant": true
    },
    {
      "inputs": [],
      "name": "eventName",
      "outputs": [
        {
          "internalType": "string",
          "name": "",
          "type": "string"
        }
      ],
      "stateMutability": "view",
      "type": "function",
      "constant": true
    },
    {
      "inputs": [],
      "name": "symbol",
      "outputs": [
        {
          "internalType": "string",
          "name": "",
          "type": "string"
        }
      ],
      "stateMutability": "view",
      "type": "function",
      "constant": true
    },
    {
      "inputs": [
        {
          "internalType": "address",
          "name": "account",
          "type": "address"
        },
        {
          "internalType": "uint256",
          "name": "id",
          "type": "uint256"
        },
        {
          "internalType": "uint256",
          "name": "amount",
          "type": "uint256"
        }
      ],
      "name": "mint",
      "outputs": [],
      "stateMutability": "nonpayable",
      "type": "function"
    },
    {
      "inputs": [
        {
          "internalType": "address",
          "name": "account",
          "type": "address"
        },
        {
          "internalType": "uint256",
          "name": "id",
          "type": "uint256"
        },
        {
          "internalType": "uint256",
          "name": "amount",
          "type": "uint256"
        },
        {
          "internalType": "bytes",
          "name": "data",
          "type": "bytes"
        }
      ],
      "name": "mint",
      "outputs": [],
      "stateMutability": "nonpayable",
      "type": "function"
    },
    {
      "inputs": [
        {
          "internalType": "address[]",
          "name": "accounts",
          "type": "address[]"
        },
        {
          "internalType": "uint256",
          "name": "id",
          "type": "uint256"
        }
      ],
      "name": "bulk_mint",
      "outputs": [],
      "stateMutability": "nonpayable",
      "type": "function"
    },
    {
      "inputs": [
        {
          "internalType": "address[]",
          "name": "accounts",
          "type": "address[]"
        },
        {
          "internalType": "uint256",
          "name": "id",
          "type": "uint256"
        },
        {
          "internalType": "bytes",
          "name": "data",
          "type": "bytes"
        }
      ],
      "name": "bulk_mint",
      "outputs": [],
      "stateMutability": "nonpayable",
      "type": "function"
    }
  ],
  "bytecode": "0x608060405260006009553480156200001657600080fd5b50604051620045053803806200450583398181016040528101906200003c9190620003d6565b6040518060400160405280601f81526020017f68747470733a2f2f7365656442617463682e636f6d2f7b69647d2e6a736f6e0081525062000083816200011b60201b60201c565b50620000a4620000986200013060201b60201c565b6200013860201b60201c565b8360069081620000b59190620006e6565b508260079081620000c79190620006e6565b508160089081620000d991906200083d565b5042600a81905550603c80601883620000f3919062000953565b620000ff919062000953565b6200010b919062000953565b600b8190555050505050620009b4565b80600290816200012c9190620006e6565b5050565b600033905090565b6000600360009054906101000a900473ffffffffffffffffffffffffffffffffffffffff16905081600360006101000a81548173ffffffffffffffffffffffffffffffffffffffff021916908373ffffffffffffffffffffffffffffffffffffffff1602179055508173ffffffffffffffffffffffffffffffffffffffff168173ffffffffffffffffffffffffffffffffffffffff167f8be0079c531659141344cd1fd0a4f28419497f9722a3daafe3b4186f6b6457e060405160405180910390a35050565b6000604051905090565b600080fd5b600080fd5b600080fd5b600080fd5b6000601f19601f8301169050919050565b7f4e487b7100000000000000000000000000000000000000000000000000000000600052604160045260246000fd5b62000267826200021c565b810181811067ffffffffffffffff821117156200028957620002886200022d565b5b80604052505050565b60006200029e620001fe565b9050620002ac82826200025c565b919050565b600067ffffffffffffffff821115620002cf57620002ce6200022d565b5b620002da826200021c565b9050602081019050919050565b60005b8381101562000307578082015181840152602081019050620002ea565b8381111562000317576000848401525b50505050565b6000620003346200032e84620002b1565b62000292565b90508281526020810184848401111562000353576200035262000217565b5b62000360848285620002e7565b509392505050565b600082601f83011262000380576200037f62000212565b5b8151620003928482602086016200031d565b91505092915050565b6000819050919050565b620003b0816200039b565b8114620003bc57600080fd5b50565b600081519050620003d081620003a5565b92915050565b60008060008060808587031215620003f357620003f262000208565b5b600085015167ffffffffffffffff8111156200041457620004136200020d565b5b620004228782880162000368565b945050602085015167ffffffffffffffff8111156200044657620004456200020d565b5b620004548782880162000368565b935050604085015167ffffffffffffffff8111156200047857620004776200020d565b5b620004868782880162000368565b92505060606200049987828801620003bf565b91505092959194509250565b600081519050919050565b7f4e487b7100000000000000000000000000000000000000000000000000000000600052602260045260246000fd5b60006002820490506001821680620004f857607f821691505b6020821081036200050e576200050d620004b0565b5b50919050565b60008190508160005260206000209050919050565b60006020601f8301049050919050565b600082821b905092915050565b600060088302620005787fffffffffffffffffffffffffffffffffffffffffffffffffffffffffffffffff8262000539565b62000584868362000539565b95508019841693508086168417925050509392505050565b6000819050919050565b6000620005c7620005c1620005bb846200039b565b6200059c565b6200039b565b9050919050565b6000819050919050565b620005e383620005a6565b620005fb620005f282620005ce565b84845462000546565b825550505050565b600090565b6200061262000603565b6200061f818484620005d8565b505050565b5b8181101562000647576200063b60008262000608565b60018101905062000625565b5050565b601f8211156200069657620006608162000514565b6200066b8462000529565b810160208510156200067b578190505b620006936200068a8562000529565b83018262000624565b50505b505050565b600082821c905092915050565b6000620006bb600019846008026200069b565b1980831691505092915050565b6000620006d68383620006a8565b9150826002028217905092915050565b620006f182620004a5565b67ffffffffffffffff8111156200070d576200070c6200022d565b5b620007198254620004df565b620007268282856200064b565b600060209050601f8311600181146200075e576000841562000749578287015190505b620007558582620006c8565b865550620007c5565b601f1984166200076e8662000514565b60005b82811015620007985784890151825560018201915060208501945060208101905062000771565b86831015620007b85784890151620007b4601f891682620006a8565b8355505b6001600288020188555050505b505050505050565b600081519050919050565b60008190508160005260206000209050919050565b601f82111562000838576200080281620007d8565b6200080d8462000529565b810160208510156200081d578190505b620008356200082c8562000529565b83018262000624565b50505b505050565b6200084882620007cd565b67ffffffffffffffff8111156200086457620008636200022d565b5b620008708254620004df565b6200087d828285620007ed565b600060209050601f831160018114620008b55760008415620008a0578287015190505b620008ac8582620006c8565b8655506200091c565b601f198416620008c586620007d8565b60005b82811015620008ef57848901518255600182019150602085019450602081019050620008c8565b868310156200090f57848901516200090b601f891682620006a8565b8355505b6001600288020188555050505b505050505050565b7f4e487b7100000000000000000000000000000000000000000000000000000000600052601160045260246000fd5b600062000960826200039b565b91506200096d836200039b565b9250817fffffffffffffffffffffffffffffffffffffffffffffffffffffffffffffffff0483118215151615620009a957620009a862000924565b5b828202905092915050565b613b4180620009c46000396000f3fe608060405234801561001057600080fd5b50600436106101415760003560e01c8063731133e9116100b8578063a22cb4651161007c578063a22cb4651461035e578063a385d3821461037a578063bd85b03914610396578063e985e9c5146103c6578063f242432a146103f6578063f2fde38b1461041257610141565b8063731133e9146102cc5780637e1d78e3146102e85780638043c9c0146103045780638da5cb5b1461032257806395d89b411461034057610141565b80631f7fdffa1161010a5780631f7fdffa1461020e5780632eb2c2d61461022a5780634e1273f4146102465780634f558e791461027657806357f7789e146102a6578063715018a6146102c257610141565b8062fdd58e1461014657806301ffc9a71461017657806302fe5305146101a65780630e89341c146101c2578063156e29f6146101f2575b600080fd5b610160600480360381019061015b91906120bd565b61042e565b60405161016d919061210c565b60405180910390f35b610190600480360381019061018b919061217f565b6104f6565b60405161019d91906121c7565b60405180910390f35b6101c060048036038101906101bb9190612328565b6105d8565b005b6101dc60048036038101906101d79190612371565b6105ec565b6040516101e99190612426565b60405180910390f35b61020c60048036038101906102079190612448565b610691565b005b61022860048036038101906102239190612604565b610786565b005b610244600480360381019061023f91906126bf565b6107a0565b005b610260600480360381019061025b9190612851565b610841565b60405161026d9190612987565b60405180910390f35b610290600480360381019061028b9190612371565b61095a565b60405161029d91906121c7565b60405180910390f35b6102c060048036038101906102bb91906129a9565b61096e565b005b6102ca61099b565b005b6102e660048036038101906102e19190612a05565b6109af565b005b61030260048036038101906102fd9190612a88565b6109c9565b005b61030c610abc565b6040516103199190612426565b60405180910390f35b61032a610b4e565b6040516103379190612af3565b60405180910390f35b610348610b78565b6040516103559190612426565b60405180910390f35b61037860048036038101906103739190612b3a565b610c0a565b005b610394600480360381019061038f9190612b7a565b610c20565b005b6103b060048036038101906103ab9190612371565b610c72565b6040516103bd919061210c565b60405180910390f35b6103e060048036038101906103db9190612c05565b610c8f565b6040516103ed91906121c7565b60405180910390f35b610410600480360381019061040b9190612c45565b610d23565b005b61042c60048036038101906104279190612cdc565b610dc4565b005b60008073ffffffffffffffffffffffffffffffffffffffff168373ffffffffffffffffffffffffffffffffffffffff160361049e576040517f08c379a000000000000000000000000000000000000000000000000000000000815260040161049590612d7b565b60405180910390fd5b60008083815260200190815260200160002060008473ffffffffffffffffffffffffffffffffffffffff1673ffffffffffffffffffffffffffffffffffffffff16815260200190815260200160002054905092915050565b60007fd9b67a26000000000000000000000000000000000000000000000000000000007bffffffffffffffffffffffffffffffffffffffffffffffffffffffff1916827bffffffffffffffffffffffffffffffffffffffffffffffffffffffff191614806105c157507f0e89341c000000000000000000000000000000000000000000000000000000007bffffffffffffffffffffffffffffffffffffffffffffffffffffffff1916827bffffffffffffffffffffffffffffffffffffffffffffffffffffffff1916145b806105d157506105d082610e47565b5b9050919050565b6105e0610eb1565b6105e981610f2f565b50565b606060056000838152602001908152602001600020805461060c90612dca565b80601f016020809104026020016040519081016040528092919081815260200182805461063890612dca565b80156106855780601f1061065a57610100808354040283529160200191610685565b820191906000526020600020905b81548152906001019060200180831161066857829003601f168201915b50505050509050919050565b610699610eb1565b600b54600a546106a99190612e2a565b4211156106eb576040517f08c379a00000000000000000000000000000000000000000000000000000000081526004016106e290612ef2565b60405180910390fd5b610781838383600880546106fe90612dca565b80601f016020809104026020016040519081016040528092919081815260200182805461072a90612dca565b80156107775780601f1061074c57610100808354040283529160200191610777565b820191906000526020600020905b81548152906001019060200180831161075a57829003601f168201915b50505050506109af565b505050565b61078e610eb1565b61079a84848484610f42565b50505050565b6107a861116e565b73ffffffffffffffffffffffffffffffffffffffff168573ffffffffffffffffffffffffffffffffffffffff1614806107ee57506107ed856107e861116e565b610c8f565b5b61082d576040517f08c379a000000000000000000000000000000000000000000000000000000000815260040161082490612f84565b60405180910390fd5b61083a8585858585611176565b5050505050565b60608151835114610887576040517f08c379a000000000000000000000000000000000000000000000000000000000815260040161087e90613016565b60405180910390fd5b6000835167ffffffffffffffff8111156108a4576108a36121fd565b5b6040519080825280602002602001820160405280156108d25781602001602082028036833780820191505090505b50905060005b845181101561094f5761091f8582815181106108f7576108f6613036565b5b602002602001015185838151811061091257610911613036565b5b602002602001015161042e565b82828151811061093257610931613036565b5b6020026020010181815250508061094890613065565b90506108d8565b508091505092915050565b60008061096683610c72565b119050919050565b610976610eb1565b806005600084815260200190815260200160002090816109969190613259565b505050565b6109a3610eb1565b6109ad6000611497565b565b6109b7610eb1565b6109c38484848461155d565b50505050565b6109d1610eb1565b600b54600a546109e19190612e2a565b421115610a23576040517f08c379a0000000000000000000000000000000000000000000000000000000008152600401610a1a90612ef2565b60405180910390fd5b610ab8828260088054610a3590612dca565b80601f0160208091040260200160405190810160405280929190818152602001828054610a6190612dca565b8015610aae5780601f10610a8357610100808354040283529160200191610aae565b820191906000526020600020905b815481529060010190602001808311610a9157829003601f168201915b5050505050610c20565b5050565b606060068054610acb90612dca565b80601f0160208091040260200160405190810160405280929190818152602001828054610af790612dca565b8015610b445780601f10610b1957610100808354040283529160200191610b44565b820191906000526020600020905b815481529060010190602001808311610b2757829003601f168201915b5050505050905090565b6000600360009054906101000a900473ffffffffffffffffffffffffffffffffffffffff16905090565b606060078054610b8790612dca565b80601f0160208091040260200160405190810160405280929190818152602001828054610bb390612dca565b8015610c005780601f10610bd557610100808354040283529160200191610c00565b820191906000526020600020905b815481529060010190602001808311610be357829003601f168201915b5050505050905090565b610c1c610c1561116e565b838361170d565b5050565b610c28610eb1565b60008351905060005b81811015610c6b57610c60858281518110610c4f57610c4e613036565b5b60200260200101518560018661155d565b806001019050610c31565b5050505050565b600060046000838152602001908152602001600020549050919050565b6000600160008473ffffffffffffffffffffffffffffffffffffffff1673ffffffffffffffffffffffffffffffffffffffff16815260200190815260200160002060008373ffffffffffffffffffffffffffffffffffffffff1673ffffffffffffffffffffffffffffffffffffffff16815260200190815260200160002060009054906101000a900460ff16905092915050565b610d2b61116e565b73ffffffffffffffffffffffffffffffffffffffff168573ffffffffffffffffffffffffffffffffffffffff161480610d715750610d7085610d6b61116e565b610c8f565b5b610db0576040517f08c379a0000000000000000000000000000000000000000000000000000000008152600401610da790612f84565b60405180910390fd5b610dbd8585858585611879565b5050505050565b610dcc610eb1565b600073ffffffffffffffffffffffffffffffffffffffff168173ffffffffffffffffffffffffffffffffffffffff1603610e3b576040517f08c379a0000000000000000000000000000000000000000000000000000000008152600401610e329061339d565b60405180910390fd5b610e4481611497565b50565b60007f01ffc9a7000000000000000000000000000000000000000000000000000000007bffffffffffffffffffffffffffffffffffffffffffffffffffffffff1916827bffffffffffffffffffffffffffffffffffffffffffffffffffffffff1916149050919050565b610eb961116e565b73ffffffffffffffffffffffffffffffffffffffff16610ed7610b4e565b73ffffffffffffffffffffffffffffffffffffffff1614610f2d576040517f08c379a0000000000000000000000000000000000000000000000000000000008152600401610f2490613409565b60405180910390fd5b565b8060029081610f3e9190613259565b5050565b600073ffffffffffffffffffffffffffffffffffffffff168473ffffffffffffffffffffffffffffffffffffffff1603610fb1576040517f08c379a0000000000000000000000000000000000000000000000000000000008152600401610fa89061349b565b60405180910390fd5b8151835114610ff5576040517f08c379a0000000000000000000000000000000000000000000000000000000008152600401610fec9061352d565b60405180910390fd5b6000610fff61116e565b905061101081600087878787611b14565b60005b84518110156110c95783818151811061102f5761102e613036565b5b602002602001015160008087848151811061104d5761104c613036565b5b6020026020010151815260200190815260200160002060008873ffffffffffffffffffffffffffffffffffffffff1673ffffffffffffffffffffffffffffffffffffffff16815260200190815260200160002060008282546110af9190612e2a565b9250508190555080806110c190613065565b915050611013565b508473ffffffffffffffffffffffffffffffffffffffff16600073ffffffffffffffffffffffffffffffffffffffff168273ffffffffffffffffffffffffffffffffffffffff167f4a39dc06d4c0dbc64b70af90fd698a233a518aa5d07e595d983b8c0526c8f7fb878760405161114192919061354d565b60405180910390a461115881600087878787611bc2565b61116781600087878787611bca565b5050505050565b600033905090565b81518351146111ba576040517f08c379a00000000000000000000000000000000000000000000000000000000081526004016111b19061352d565b60405180910390fd5b600073ffffffffffffffffffffffffffffffffffffffff168473ffffffffffffffffffffffffffffffffffffffff1603611229576040517f08c379a0000000000000000000000000000000000000000000000000000000008152600401611220906135f6565b60405180910390fd5b600061123361116e565b9050611243818787878787611b14565b60005b84518110156113f457600085828151811061126457611263613036565b5b60200260200101519050600085838151811061128357611282613036565b5b60200260200101519050600080600084815260200190815260200160002060008b73ffffffffffffffffffffffffffffffffffffffff1673ffffffffffffffffffffffffffffffffffffffff16815260200190815260200160002054905081811015611324576040517f08c379a000000000000000000000000000000000000000000000000000000000815260040161131b90613688565b60405180910390fd5b81810360008085815260200190815260200160002060008c73ffffffffffffffffffffffffffffffffffffffff1673ffffffffffffffffffffffffffffffffffffffff168152602001908152602001600020819055508160008085815260200190815260200160002060008b73ffffffffffffffffffffffffffffffffffffffff1673ffffffffffffffffffffffffffffffffffffffff16815260200190815260200160002060008282546113d99190612e2a565b92505081905550505050806113ed90613065565b9050611246565b508473ffffffffffffffffffffffffffffffffffffffff168673ffffffffffffffffffffffffffffffffffffffff168273ffffffffffffffffffffffffffffffffffffffff167f4a39dc06d4c0dbc64b70af90fd698a233a518aa5d07e595d983b8c0526c8f7fb878760405161146b92919061354d565b60405180910390a4611481818787878787611bc2565b61148f818787878787611bca565b505050505050565b6000600360009054906101000a900473ffffffffffffffffffffffffffffffffffffffff16905081600360006101000a81548173ffffffffffffffffffffffffffffffffffffffff021916908373ffffffffffffffffffffffffffffffffffffffff1602179055508173ffffffffffffffffffffffffffffffffffffffff168173ffffffffffffffffffffffffffffffffffffffff167f8be0079c531659141344cd1fd0a4f28419497f9722a3daafe3b4186f6b6457e060405160405180910390a35050565b600073ffffffffffffffffffffffffffffffffffffffff168473ffffffffffffffffffffffffffffffffffffffff16036115cc576040517f08c379a00000000000000000000000000000000000000000000000000000000081526004016115c39061349b565b60405180910390fd5b60006115d661116e565b905060006115e385611da1565b905060006115f085611da1565b905061160183600089858589611b14565b8460008088815260200190815260200160002060008973ffffffffffffffffffffffffffffffffffffffff1673ffffffffffffffffffffffffffffffffffffffff16815260200190815260200160002060008282546116609190612e2a565b925050819055508673ffffffffffffffffffffffffffffffffffffffff16600073ffffffffffffffffffffffffffffffffffffffff168473ffffffffffffffffffffffffffffffffffffffff167fc3d58168c5ae7397731d063d5bbf3d657854427343f4c083240f7aacaa2d0f6289896040516116de9291906136a8565b60405180910390a46116f583600089858589611bc2565b61170483600089898989611e1b565b50505050505050565b8173ffffffffffffffffffffffffffffffffffffffff168373ffffffffffffffffffffffffffffffffffffffff160361177b576040517f08c379a000000000000000000000000000000000000000000000000000000000815260040161177290613743565b60405180910390fd5b80600160008573ffffffffffffffffffffffffffffffffffffffff1673ffffffffffffffffffffffffffffffffffffffff16815260200190815260200160002060008473ffffffffffffffffffffffffffffffffffffffff1673ffffffffffffffffffffffffffffffffffffffff16815260200190815260200160002060006101000a81548160ff0219169083151502179055508173ffffffffffffffffffffffffffffffffffffffff168373ffffffffffffffffffffffffffffffffffffffff167f17307eab39ab6107e8899845ad3d59bd9653f200f220920489ca2b5937696c318360405161186c91906121c7565b60405180910390a3505050565b600073ffffffffffffffffffffffffffffffffffffffff168473ffffffffffffffffffffffffffffffffffffffff16036118e8576040517f08c379a00000000000000000000000000000000000000000000000000000000081526004016118df906135f6565b60405180910390fd5b60006118f261116e565b905060006118ff85611da1565b9050600061190c85611da1565b905061191c838989858589611b14565b600080600088815260200190815260200160002060008a73ffffffffffffffffffffffffffffffffffffffff1673ffffffffffffffffffffffffffffffffffffffff168152602001908152602001600020549050858110156119b3576040517f08c379a00000000000000000000000000000000000000000000000000000000081526004016119aa90613688565b60405180910390fd5b85810360008089815260200190815260200160002060008b73ffffffffffffffffffffffffffffffffffffffff1673ffffffffffffffffffffffffffffffffffffffff168152602001908152602001600020819055508560008089815260200190815260200160002060008a73ffffffffffffffffffffffffffffffffffffffff1673ffffffffffffffffffffffffffffffffffffffff1681526020019081526020016000206000828254611a689190612e2a565b925050819055508773ffffffffffffffffffffffffffffffffffffffff168973ffffffffffffffffffffffffffffffffffffffff168573ffffffffffffffffffffffffffffffffffffffff167fc3d58168c5ae7397731d063d5bbf3d657854427343f4c083240f7aacaa2d0f628a8a604051611ae59291906136a8565b60405180910390a4611afb848a8a86868a611bc2565b611b09848a8a8a8a8a611e1b565b505050505050505050565b600073ffffffffffffffffffffffffffffffffffffffff168573ffffffffffffffffffffffffffffffffffffffff161480611b7b5750600073ffffffffffffffffffffffffffffffffffffffff168473ffffffffffffffffffffffffffffffffffffffff16145b611bba576040517f08c379a0000000000000000000000000000000000000000000000000000000008152600401611bb1906137af565b60405180910390fd5b505050505050565b505050505050565b611be98473ffffffffffffffffffffffffffffffffffffffff16611ff2565b15611d99578373ffffffffffffffffffffffffffffffffffffffff1663bc197c8187878686866040518663ffffffff1660e01b8152600401611c2f959493929190613824565b6020604051808303816000875af1925050508015611c6b57506040513d601f19601f82011682018060405250810190611c6891906138a1565b60015b611d1057611c776138db565b806308c379a003611cd35750611c8b6138fd565b80611c965750611cd5565b806040517f08c379a0000000000000000000000000000000000000000000000000000000008152600401611cca9190612426565b60405180910390fd5b505b6040517f08c379a0000000000000000000000000000000000000000000000000000000008152600401611d07906139ff565b60405180910390fd5b63bc197c8160e01b7bffffffffffffffffffffffffffffffffffffffffffffffffffffffff1916817bffffffffffffffffffffffffffffffffffffffffffffffffffffffff191614611d97576040517f08c379a0000000000000000000000000000000000000000000000000000000008152600401611d8e90613a91565b60405180910390fd5b505b505050505050565b60606000600167ffffffffffffffff811115611dc057611dbf6121fd565b5b604051908082528060200260200182016040528015611dee5781602001602082028036833780820191505090505b5090508281600081518110611e0657611e05613036565b5b60200260200101818152505080915050919050565b611e3a8473ffffffffffffffffffffffffffffffffffffffff16611ff2565b15611fea578373ffffffffffffffffffffffffffffffffffffffff1663f23a6e6187878686866040518663ffffffff1660e01b8152600401611e80959493929190613ab1565b6020604051808303816000875af1925050508015611ebc57506040513d601f19601f82011682018060405250810190611eb991906138a1565b60015b611f6157611ec86138db565b806308c379a003611f245750611edc6138fd565b80611ee75750611f26565b806040517f08c379a0000000000000000000000000000000000000000000000000000000008152600401611f1b9190612426565b60405180910390fd5b505b6040517f08c379a0000000000000000000000000000000000000000000000000000000008152600401611f58906139ff565b60405180910390fd5b63f23a6e6160e01b7bffffffffffffffffffffffffffffffffffffffffffffffffffffffff1916817bffffffffffffffffffffffffffffffffffffffffffffffffffffffff191614611fe8576040517f08c379a0000000000000000000000000000000000000000000000000000000008152600401611fdf90613a91565b60405180910390fd5b505b505050505050565b6000808273ffffffffffffffffffffffffffffffffffffffff163b119050919050565b6000604051905090565b600080fd5b600080fd5b600073ffffffffffffffffffffffffffffffffffffffff82169050919050565b600061205482612029565b9050919050565b61206481612049565b811461206f57600080fd5b50565b6000813590506120818161205b565b92915050565b6000819050919050565b61209a81612087565b81146120a557600080fd5b50565b6000813590506120b781612091565b92915050565b600080604083850312156120d4576120d361201f565b5b60006120e285828601612072565b92505060206120f3858286016120a8565b9150509250929050565b61210681612087565b82525050565b600060208201905061212160008301846120fd565b92915050565b60007fffffffff0000000000000000000000000000000000000000000000000000000082169050919050565b61215c81612127565b811461216757600080fd5b50565b60008135905061217981612153565b92915050565b6000602082840312156121955761219461201f565b5b60006121a38482850161216a565b91505092915050565b60008115159050919050565b6121c1816121ac565b82525050565b60006020820190506121dc60008301846121b8565b92915050565b600080fd5b600080fd5b6000601f19601f8301169050919050565b7f4e487b7100000000000000000000000000000000000000000000000000000000600052604160045260246000fd5b612235826121ec565b810181811067ffffffffffffffff82111715612254576122536121fd565b5b80604052505050565b6000612267612015565b9050612273828261222c565b919050565b600067ffffffffffffffff821115612293576122926121fd565b5b61229c826121ec565b9050602081019050919050565b82818337600083830152505050565b60006122cb6122c684612278565b61225d565b9050828152602081018484840111156122e7576122e66121e7565b5b6122f28482856122a9565b509392505050565b600082601f83011261230f5761230e6121e2565b5b813561231f8482602086016122b8565b91505092915050565b60006020828403121561233e5761233d61201f565b5b600082013567ffffffffffffffff81111561235c5761235b612024565b5b612368848285016122fa565b91505092915050565b6000602082840312156123875761238661201f565b5b6000612395848285016120a8565b91505092915050565b600081519050919050565b600082825260208201905092915050565b60005b838110156123d85780820151818401526020810190506123bd565b838111156123e7576000848401525b50505050565b60006123f88261239e565b61240281856123a9565b93506124128185602086016123ba565b61241b816121ec565b840191505092915050565b6000602082019050818103600083015261244081846123ed565b905092915050565b6000806000606084860312156124615761246061201f565b5b600061246f86828701612072565b9350506020612480868287016120a8565b9250506040612491868287016120a8565b9150509250925092565b600067ffffffffffffffff8211156124b6576124b56121fd565b5b602082029050602081019050919050565b600080fd5b60006124df6124da8461249b565b61225d565b90508083825260208201905060208402830185811115612502576125016124c7565b5b835b8181101561252b578061251788826120a8565b845260208401935050602081019050612504565b5050509392505050565b600082601f83011261254a576125496121e2565b5b813561255a8482602086016124cc565b91505092915050565b600067ffffffffffffffff82111561257e5761257d6121fd565b5b612587826121ec565b9050602081019050919050565b60006125a76125a284612563565b61225d565b9050828152602081018484840111156125c3576125c26121e7565b5b6125ce8482856122a9565b509392505050565b600082601f8301126125eb576125ea6121e2565b5b81356125fb848260208601612594565b91505092915050565b6000806000806080858703121561261e5761261d61201f565b5b600061262c87828801612072565b945050602085013567ffffffffffffffff81111561264d5761264c612024565b5b61265987828801612535565b935050604085013567ffffffffffffffff81111561267a57612679612024565b5b61268687828801612535565b925050606085013567ffffffffffffffff8111156126a7576126a6612024565b5b6126b3878288016125d6565b91505092959194509250565b600080600080600060a086880312156126db576126da61201f565b5b60006126e988828901612072565b95505060206126fa88828901612072565b945050604086013567ffffffffffffffff81111561271b5761271a612024565b5b61272788828901612535565b935050606086013567ffffffffffffffff81111561274857612747612024565b5b61275488828901612535565b925050608086013567ffffffffffffffff81111561277557612774612024565b5b612781888289016125d6565b9150509295509295909350565b600067ffffffffffffffff8211156127a9576127a86121fd565b5b602082029050602081019050919050565b60006127cd6127c88461278e565b61225d565b905080838252602082019050602084028301858111156127f0576127ef6124c7565b5b835b8181101561281957806128058882612072565b8452602084019350506020810190506127f2565b5050509392505050565b600082601f830112612838576128376121e2565b5b81356128488482602086016127ba565b91505092915050565b600080604083850312156128685761286761201f565b5b600083013567ffffffffffffffff81111561288657612885612024565b5b61289285828601612823565b925050602083013567ffffffffffffffff8111156128b3576128b2612024565b5b6128bf85828601612535565b9150509250929050565b600081519050919050565b600082825260208201905092915050565b6000819050602082019050919050565b6128fe81612087565b82525050565b600061291083836128f5565b60208301905092915050565b6000602082019050919050565b6000612934826128c9565b61293e81856128d4565b9350612949836128e5565b8060005b8381101561297a5781516129618882612904565b975061296c8361291c565b92505060018101905061294d565b5085935050505092915050565b600060208201905081810360008301526129a18184612929565b905092915050565b600080604083850312156129c0576129bf61201f565b5b60006129ce858286016120a8565b925050602083013567ffffffffffffffff8111156129ef576129ee612024565b5b6129fb858286016122fa565b9150509250929050565b60008060008060808587031215612a1f57612a1e61201f565b5b6000612a2d87828801612072565b9450506020612a3e878288016120a8565b9350506040612a4f878288016120a8565b925050606085013567ffffffffffffffff811115612a7057612a6f612024565b5b612a7c878288016125d6565b91505092959194509250565b60008060408385031215612a9f57612a9e61201f565b5b600083013567ffffffffffffffff811115612abd57612abc612024565b5b612ac985828601612823565b9250506020612ada858286016120a8565b9150509250929050565b612aed81612049565b82525050565b6000602082019050612b086000830184612ae4565b92915050565b612b17816121ac565b8114612b2257600080fd5b50565b600081359050612b3481612b0e565b92915050565b60008060408385031215612b5157612b5061201f565b5b6000612b5f85828601612072565b9250506020612b7085828601612b25565b9150509250929050565b600080600060608486031215612b9357612b9261201f565b5b600084013567ffffffffffffffff811115612bb157612bb0612024565b5b612bbd86828701612823565b9350506020612bce868287016120a8565b925050604084013567ffffffffffffffff811115612bef57612bee612024565b5b612bfb868287016125d6565b9150509250925092565b60008060408385031215612c1c57612c1b61201f565b5b6000612c2a85828601612072565b9250506020612c3b85828601612072565b9150509250929050565b600080600080600060a08688031215612c6157612c6061201f565b5b6000612c6f88828901612072565b9550506020612c8088828901612072565b9450506040612c91888289016120a8565b9350506060612ca2888289016120a8565b925050608086013567ffffffffffffffff811115612cc357612cc2612024565b5b612ccf888289016125d6565b9150509295509295909350565b600060208284031215612cf257612cf161201f565b5b6000612d0084828501612072565b91505092915050565b7f455243313135353a2061646472657373207a65726f206973206e6f742061207660008201527f616c6964206f776e657200000000000000000000000000000000000000000000602082015250565b6000612d65602a836123a9565b9150612d7082612d09565b604082019050919050565b60006020820190508181036000830152612d9481612d58565b9050919050565b7f4e487b7100000000000000000000000000000000000000000000000000000000600052602260045260246000fd5b60006002820490506001821680612de257607f821691505b602082108103612df557612df4612d9b565b5b50919050565b7f4e487b7100000000000000000000000000000000000000000000000000000000600052601160045260246000fd5b6000612e3582612087565b9150612e4083612087565b9250827fffffffffffffffffffffffffffffffffffffffffffffffffffffffffffffffff03821115612e7557612e74612dfb565b5b828201905092915050565b7f596f752063616e2774206d696e74207468697320746f6b656e20616e796d6f7260008201527f6500000000000000000000000000000000000000000000000000000000000000602082015250565b6000612edc6021836123a9565b9150612ee782612e80565b604082019050919050565b60006020820190508181036000830152612f0b81612ecf565b9050919050565b7f455243313135353a2063616c6c6572206973206e6f7420746f6b656e206f776e60008201527f6572206e6f7220617070726f7665640000000000000000000000000000000000602082015250565b6000612f6e602f836123a9565b9150612f7982612f12565b604082019050919050565b60006020820190508181036000830152612f9d81612f61565b9050919050565b7f455243313135353a206163636f756e747320616e6420696473206c656e67746860008201527f206d69736d617463680000000000000000000000000000000000000000000000602082015250565b60006130006029836123a9565b915061300b82612fa4565b604082019050919050565b6000602082019050818103600083015261302f81612ff3565b9050919050565b7f4e487b7100000000000000000000000000000000000000000000000000000000600052603260045260246000fd5b600061307082612087565b91507fffffffffffffffffffffffffffffffffffffffffffffffffffffffffffffffff82036130a2576130a1612dfb565b5b600182019050919050565b60008190508160005260206000209050919050565b60006020601f8301049050919050565b600082821b905092915050565b60006008830261310f7fffffffffffffffffffffffffffffffffffffffffffffffffffffffffffffffff826130d2565b61311986836130d2565b95508019841693508086168417925050509392505050565b6000819050919050565b600061315661315161314c84612087565b613131565b612087565b9050919050565b6000819050919050565b6131708361313b565b61318461317c8261315d565b8484546130df565b825550505050565b600090565b61319961318c565b6131a4818484613167565b505050565b5b818110156131c8576131bd600082613191565b6001810190506131aa565b5050565b601f82111561320d576131de816130ad565b6131e7846130c2565b810160208510156131f6578190505b61320a613202856130c2565b8301826131a9565b50505b505050565b600082821c905092915050565b600061323060001984600802613212565b1980831691505092915050565b6000613249838361321f565b9150826002028217905092915050565b6132628261239e565b67ffffffffffffffff81111561327b5761327a6121fd565b5b6132858254612dca565b6132908282856131cc565b600060209050601f8311600181146132c357600084156132b1578287015190505b6132bb858261323d565b865550613323565b601f1984166132d1866130ad565b60005b828110156132f9578489015182556001820191506020850194506020810190506132d4565b868310156133165784890151613312601f89168261321f565b8355505b6001600288020188555050505b505050505050565b7f4f776e61626c653a206e6577206f776e657220697320746865207a65726f206160008201527f6464726573730000000000000000000000000000000000000000000000000000602082015250565b60006133876026836123a9565b91506133928261332b565b604082019050919050565b600060208201905081810360008301526133b68161337a565b9050919050565b7f4f776e61626c653a2063616c6c6572206973206e6f7420746865206f776e6572600082015250565b60006133f36020836123a9565b91506133fe826133bd565b602082019050919050565b60006020820190508181036000830152613422816133e6565b9050919050565b7f455243313135353a206d696e7420746f20746865207a65726f2061646472657360008201527f7300000000000000000000000000000000000000000000000000000000000000602082015250565b60006134856021836123a9565b915061349082613429565b604082019050919050565b600060208201905081810360008301526134b481613478565b9050919050565b7f455243313135353a2069647320616e6420616d6f756e7473206c656e6774682060008201527f6d69736d61746368000000000000000000000000000000000000000000000000602082015250565b60006135176028836123a9565b9150613522826134bb565b604082019050919050565b600060208201905081810360008301526135468161350a565b9050919050565b600060408201905081810360008301526135678185612929565b9050818103602083015261357b8184612929565b90509392505050565b7f455243313135353a207472616e7366657220746f20746865207a65726f20616460008201527f6472657373000000000000000000000000000000000000000000000000000000602082015250565b60006135e06025836123a9565b91506135eb82613584565b604082019050919050565b6000602082019050818103600083015261360f816135d3565b9050919050565b7f455243313135353a20696e73756666696369656e742062616c616e636520666f60008201527f72207472616e7366657200000000000000000000000000000000000000000000602082015250565b6000613672602a836123a9565b915061367d82613616565b604082019050919050565b600060208201905081810360008301526136a181613665565b9050919050565b60006040820190506136bd60008301856120fd565b6136ca60208301846120fd565b9392505050565b7f455243313135353a2073657474696e6720617070726f76616c2073746174757360008201527f20666f722073656c660000000000000000000000000000000000000000000000602082015250565b600061372d6029836123a9565b9150613738826136d1565b604082019050919050565b6000602082019050818103600083015261375c81613720565b9050919050565b7f4e6f7420616c6c6f77656420746f207472616e7366657220746f6b656e000000600082015250565b6000613799601d836123a9565b91506137a482613763565b602082019050919050565b600060208201905081810360008301526137c88161378c565b9050919050565b600081519050919050565b600082825260208201905092915050565b60006137f6826137cf565b61380081856137da565b93506138108185602086016123ba565b613819816121ec565b840191505092915050565b600060a0820190506138396000830188612ae4565b6138466020830187612ae4565b81810360408301526138588186612929565b9050818103606083015261386c8185612929565b9050818103608083015261388081846137eb565b90509695505050505050565b60008151905061389b81612153565b92915050565b6000602082840312156138b7576138b661201f565b5b60006138c58482850161388c565b91505092915050565b60008160e01c9050919050565b600060033d11156138fa5760046000803e6138f76000516138ce565b90505b90565b600060443d1061398a5761390f612015565b60043d036004823e80513d602482011167ffffffffffffffff8211171561393757505061398a565b808201805167ffffffffffffffff811115613955575050505061398a565b80602083010160043d03850181111561397257505050505061398a565b6139818260200185018661222c565b82955050505050505b90565b7f455243313135353a207472616e7366657220746f206e6f6e204552433131353560008201527f526563656976657220696d706c656d656e746572000000000000000000000000602082015250565b60006139e96034836123a9565b91506139f48261398d565b604082019050919050565b60006020820190508181036000830152613a18816139dc565b9050919050565b7f455243313135353a204552433131353552656365697665722072656a6563746560008201527f6420746f6b656e73000000000000000000000000000000000000000000000000602082015250565b6000613a7b6028836123a9565b9150613a8682613a1f565b604082019050919050565b60006020820190508181036000830152613aaa81613a6e565b9050919050565b600060a082019050613ac66000830188612ae4565b613ad36020830187612ae4565b613ae060408301866120fd565b613aed60608301856120fd565b8181036080830152613aff81846137eb565b9050969550505050505056fea26469706673582212203e3ab9da35dced1c7191acc66cb1be65699a852b79c12f5c91c3c13b602feba864736f6c634300080f0033",
  "immutableReferences": {},
  "source": "// SPDX-License-Identifier: MIT\npragma solidity 0.8.15;\n\nimport \"@openzeppelin/contracts/token/ERC1155/ERC1155.sol\";\nimport \"@openzeppelin/contracts/access/Ownable.sol\";\nimport \"@openzeppelin/contracts/token/ERC1155/extensions/ERC1155Supply.sol\";\nimport \"./SeedBatch.sol\";\nimport \"@openzeppelin/contracts/utils/math/SafeMath.sol\";\nimport \"@openzeppelin/contracts/utils/Strings.sol\";\ncontract SeedNFT is SeedBatch {\n    using SafeMath for uint256;\n\n    string private _eventName;\n    string private _symbol;\n    bytes private _baseUri;\n    uint256 private _currentTokenID = 0;\n    uint256 private _timeCreated;\n    uint256 private _timePeriod;\n\n    constructor(\n        string memory eventName,\n        string memory symbol,\n        string memory Uri,\n        uint256 timePeriod\n    ) {\n        _eventName = eventName;\n        _symbol = symbol;\n        _baseUri = bytes(Uri);\n        _timeCreated = block.timestamp;\n        _timePeriod = timePeriod * 24 * 60 * 60;// days to seconds\n    }\n\n    function eventName() external view returns (string memory) {\n        return _eventName;\n    }\n\n    function symbol() external view returns (string memory) {\n        return _symbol;\n    }   \n\n    function mint(address account, uint256 id, uint256 amount) public onlyOwner {\n        require(\n            block.timestamp <= _timeCreated + _timePeriod,\n            \"You can't mint this token anymore\"\n        );\n        super.mint(account, id, amount, _baseUri);\n    }\n\n    function bulk_mint(address[] memory accounts, uint256 id)\n        public\n        \n        onlyOwner\n    {\n        require(\n            block.timestamp <= _timeCreated + _timePeriod,\n            \"You can't mint this token anymore\"\n        );\n        super.bulk_mint(accounts, id, _baseUri);\n    }\n\n    function _getNextTokenID() private view returns (uint256) {\n        return _currentTokenID.add(1);\n    }\n\n    function _incrementTokenTypeId() private {\n        _currentTokenID++;\n    }\n}\n",
  "sourcePath": "/home/sordgom/playground/hackathon/project/contracts/SeedNFT.sol",
  "compiler": {
    "name": "solc",
    "version": "0.8.15+commit.e14f2714.Emscripten.clang"
  },
  "schemaVersion": "3.4.8",
  "updatedAt": "2022-09-03T03:19:35.663Z",
  "networkType": "ethereum",
  "devdoc": {
    "kind": "dev",
    "methods": {
      "balanceOf(address,uint256)": {
        "details": "See {IERC1155-balanceOf}. Requirements: - `account` cannot be the zero address."
      },
      "balanceOfBatch(address[],uint256[])": {
        "details": "See {IERC1155-balanceOfBatch}. Requirements: - `accounts` and `ids` must have the same length."
      },
      "exists(uint256)": {
        "details": "Indicates whether any token exist with a given id, or not."
      },
      "isApprovedForAll(address,address)": {
        "details": "See {IERC1155-isApprovedForAll}."
      },
      "owner()": {
        "details": "Returns the address of the current owner."
      },
      "renounceOwnership()": {
        "details": "Leaves the contract without owner. It will not be possible to call `onlyOwner` functions anymore. Can only be called by the current owner. NOTE: Renouncing ownership will leave the contract without an owner, thereby removing any functionality that is only available to the owner."
      },
      "safeBatchTransferFrom(address,address,uint256[],uint256[],bytes)": {
        "details": "See {IERC1155-safeBatchTransferFrom}."
      },
      "safeTransferFrom(address,address,uint256,uint256,bytes)": {
        "details": "See {IERC1155-safeTransferFrom}."
      },
      "setApprovalForAll(address,bool)": {
        "details": "See {IERC1155-setApprovalForAll}."
      },
      "supportsInterface(bytes4)": {
        "details": "See {IERC165-supportsInterface}."
      },
      "totalSupply(uint256)": {
        "details": "Total amount of tokens in with a given id."
      },
      "transferOwnership(address)": {
        "details": "Transfers ownership of the contract to a new account (`newOwner`). Can only be called by the current owner."
      }
    },
    "version": 1
  },
  "userdoc": {
    "kind": "user",
    "methods": {},
    "version": 1
  }
}